:020000040800F2
:1000000018DF022489030008E9320008C12C000827
:10001000E532000871090008F93900080000000005
:10002000000000000000000000000000FD37000894
:10003000050A000800000000EB320008FF37000846
:10004000A3030008A3030008A3030008A3030008F8
:10005000A3030008A3030008A3030008A3030008E8
:10006000A3030008A3030008A3030008A3030008D8
:10007000A3030008A3030008A3030008A3030008C8
:10008000A3030008A3030008A3030008A3030008B8
:10009000A3030008A3030008A3030008A3030008A8
:1000A000A3030008A3030008A3030008A303000898
:1000B000A3030008A3030008A3030008A303000888
:1000C000A3030008A3030008A3030008A303000878
:1000D000A3030008A3030008A3030008A303000868
:1000E000A3030008A303000800000000A303000806
:1000F000A3030008A3030008A3030008A303000848
:10010000A3030008A3030008A3030008A303000837
:10011000A3030008A3030008A3030008A303000827
:10012000A3030008A3030008A3030008A303000817
:10013000A3030008A3030008A3030008A303000807
:1001400000000000000000000000000000000000AF
:10015000A3030008A3030008A3030008A3030008E7
:10016000A3030008A3030008A3030008A3030008D7
:10017000A3030008A3030008A30300080000000075
:10018000A3030008A3030008A3030008A3030008B7
:10019000A3030008A3030008A3030008A3030008A7
:1001A000A3030008A3030008A3030008A303000897
:1001B000A3030008A3030008A3030008A303000887
:1001C000A3030008A3030008A3030008A303000877
:1001D000A3030008A3030008A3030008A303000867
:1001E000A3030008A3030008A3030008A303000857
:1001F000A3030008A3030008A3030008A303000847
:10020000A3030008A3030008A3030008A303000836
:10021000A3030008A3030008A3030008A303000826
:10022000A3030008A3030008A303000800000000C4
:10023000A3030008A303000800000000A3030008B4
:10024000A3030008A3030008A3030008A3030008F6
:10025000A3030008A3030008A3030008A3030008E6
:10026000A3030008A3030008A3030008A3030008D6
:10027000A3030008A3030008A30300080000000074
:10028000A3030008A3030008A30300080000000064
:1002900000000000A303000800F002F800F065F879
:1002A0000AA090E8000C82448344AAF10107DA45D1
:1002B00001D100F05AF8AFF2090EBAE80F0013F0BE
:1002C000010F18BFFB1A43F001031847A8A600004E
:1002D000C8A600000A444FF0000C10F8013B13F0D0
:1002E000070408BF10F8014B1D1108BF10F8015B8F
:1002F000641E05D010F8016B641E01F8016BF9D182
:1003000013F0080F1EBF10F8014BAD1C0C1B09D1D8
:100310006D1E58BF01F801CBFAD505E014F8016B4A
:1003200001F8016B6D1EF9D59142D6D370470000DC
:100330000023002400250026103A28BF78C1FBD8EE
:10034000520728BF30C148BF0B6070471FB508F087
:100350007DFF9DE8030000F0C9F900F08FF91FBD93
:1003600010B5002000F0F8F910BD00F091FA114628
:10037000FFF7ECFF08F060FD00F0AFFA03B4FFF701
:10038000EFFF03BC00F08CF909488047094800479B
:10039000FEE7FEE7FEE7FEE7FEE7FEE7FEE7FEE735
:1003A000FEE7FEE704480549054A064B7047000092
:1003B000F538000899020008185F022418DF0224AB
:1003C000189F0224189F022470B5064600F06EF9AB
:1003D000056806F10B0020F00704B4429CBF002022
:1003E00070BD2B466A68BAB11068A04210D304F100
:1003F000080188423CBF5068586007D35168101903
:1004000041601168091B016058601460101D70BDC7
:1004100013465268002AE7D12146284600F052F9D7
:100420000028DED170BD70B50446051F00F03EF90E
:100430000068002C14BF446870BD002C18BFAC428B
:100440003CBF20466468F8D301680A18AA4218BF66
:10045000456003D12A6805461144016028684119A6
:10046000A1421CBF6C6070BD61686960216808446E
:10047000286070BD10B5002000F08FF9FFF770FF05
:10048000BDE81040012000F00BB92DE9F04107460E
:1004900015460E461020FFF797FF04000AD067604C
:1004A000C4E9026500F006F90168216004600020DB
:1004B000BDE8F0810120FBE70EB5054614460E4667
:1004C00013A000F078F9284600F075F916A000F0A6
:1004D00072F9304600F06FF915A000F06CF90021B8
:1004E0008DF80B100A210DF10A008DF80A1008E0B2
:1004F00094FBF1F201FB124294FBF1F4303200F86C
:10050000012D002CF4DC00F056F9FFF7B3FF0000DA
:100510002A2A2A20617373657274696F6E2066617E
:10052000696C65643A2000002C2066696C652000C7
:100530002C206C696E652000032A40F2308010F098
:10054000030C00F0158011F8013BBCF1020F62446E
:1005500098BF11F801CB00F8013B38BF11F8013BFF
:10056000A2F1040298BF00F801CB38BF00F8013BAC
:1005700011F0030300F02580083AC0F0088051F81C
:10058000043B083A51F804CBA0E80810F5E7121D27
:100590005CBF51F8043B40F8043BAFF30080D20746
:1005A00024BF11F8013B11F801CB48BF11F8012B12
:1005B00024BF00F8013B00F801CB48BF00F8012B35
:1005C000704710B5203AC0F00B80B1E81850203ABF
:1005D000A0E81850B1E81850A0E81850BFF4F5AFE3
:1005E0005FEA027C24BFB1E81850A0E8185044BF6D
:1005F00018C918C0BDE810405FEA827C24BF51F8DA
:10060000043B40F8043B08BF7047D20728BF31F8CD
:10061000023B48BF11F8012B28BF20F8023B48BF1E
:1006200000F8012B70474FF0000200B513469446C6
:100630009646203922BFA0E80C50A0E80C50B1F13A
:100640002001BFF4F7AF090728BFA0E80C5048BF4E
:100650000CC05DF804EB890028BF40F8042B08BFEC
:10066000704748BF20F8022B11F0804F18BF00F8E8
:10067000012B7047704770477047000070B5064CFB
:100680007C44064D7D4403E0206820448047241DBF
:10069000AC42F9D170BD000034A3000040A30000BB
:1006A00001491820ABBEFEE7260002000048704753
:1006B000405C022400487047705C02247047704719
:1006C0007047704738B504460A4600206946AFF3C4
:1006D0000080002808BF38BD02460099204600F07F
:1006E00080F8012038BD012000F0B2B8F8B5AFF3B2
:1006F0000080054600200C46102000BF0646A819C1
:10070000A0420DD9324669460020AFF300800700B1
:1007100008BF00F09DF80098A04218BF0546C41914
:10072000FFF7C4FF05600746F01D20F007004619DB
:10073000284600F00AF8B44208BFF8BDA21B3146B3
:100740003868BDE8F84000F04CB800210160C0E90D
:1007500001107047102070472DE9F0410646FFF761
:10076000A9FF8046454613E016B1E068B0420ED1BD
:1007700020682860D4E90101D8F800708847204635
:10078000FFF751FED8F80000B842EBD100E0254653
:100790002C68002CE8D1BDE8F08110B500F040F8DD
:1007A000BDE8104000F037B810B500F059F8BDE8CA
:1007B000104000F030B810B5044602E0641C00F0B0
:1007C00004F820780028F9D110BD08B569468DF8E5
:1007D00000000320ABBE08BD00487047385C02240F
:1007E0007047034640688C46002818BF88423CBFCB
:1007F00003464068F8D318681844884207D00CF1C3
:10080000030020F00700001D411A521A0146081D7E
:100810000A60FFF708BE002801D0FFF741BF70470C
:1008200010B5002102A000F061F8012010BD000009
:10083000534947414252543A2041626E6F726D6192
:100840006C207465726D696E6174696F6E00000072
:1008500010B500F065F8BDE81040FFF7DCBF000000
:1008600010B5002102A000F041F8012010BD0000E9
:100870005349475056464E3A205075726520766966
:10088000727475616C20666E2063616C6C656400C7
:100890007546FFF7A1FFAE4605006946534620F0B6
:1008A0000700854618B020B5FFF77CFDBDE8204065
:1008B0004FF000064FF000074FF000084FF0000B1C
:1008C00021F00701AC46ACE8C009ACE8C009ACE8CF
:1008D000C009ACE8C0098D46704710B50446AFF3B7
:1008E00000802046BDE81040FFF748BD70B50546C2
:1008F0000C460A2000E06D1CFFF767FF35B1287831
:100900000028F8D102E0641CFFF75FFF14B12078E3
:100910000028F8D1BDE870400A20FFF756BF00005C
:1009200010B5012805D0002103A0FFF7DFFF01204B
:1009300010BD09A1F8E7000053494752544D454DF9
:100940003A204F7574206F662068656170206D6570
:100950006D6F7279000000003A2048656170206D6B
:10096000656D6F727920636F727275707465640063
:1009700000BFFEE71D4A30B5136823F00103136082
:100980001B4A1368C3F30B140123A4F54065243DEF
:1009900006D01268C2F30B12A2F54064273C10D1B6
:1009A000144A12686AB9144A14684FF08A45B5EBC4
:1009B000045F11D01268C2F30B02A2F58064833C7D
:1009C0000AD00E4A93609368002BFCD11060106827
:1009D000884209D0002030BD094A13601368002BFB
:1009E000FCD1074A083AF1E7012030BD002000E0C1
:1009F00000ED00E0002004E00010005C0030024048
:100A0000084C02587047704770B503460C460020EA
:100A10001F2100BF0D1EA1F1010106D001F01F062C
:100A20000125B5402540002DF4D08AB1082A0BD00D
:100A3000102A05D0182A0CD1072900D301200AE07A
:100A4000082900D3012006E0102900D3012002E08C
:100A500001E0012000BF00BF40B91D686C611D6846
:100A6000AD6825F0180515431E68B56070BD00001F
:100A700010B504460CB9012010BD607F20B90020DC
:100A80002077204600F036F802206077207948B9B8
:100A90001748216848612068806820F018002168A4
:100AA000886007E02046D4E90212FFF7ADFF08B1E5
:100AB0000120E1E7607920B94FF0FF30216808613B
:100AC00002E02168206908612068806820F06000E9
:100AD00061690843216888602068806820F0800090
:100AE000A169084321688860012060770020C3E77E
:100AF000B71DC10408B5094A016891420DD100BF74
:100B00000749096841F40021054A11601146096846
:100B100001F40021009100BF00BF08BD004C025845
:100B2000E044025870B5044600F020F90646254618
:100B3000681C10B104480078054400BF00F016F9A5
:100B4000801BA842FAD370BD1C000024F8B50246F1
:100B50000023734DDEE001279F400E6806EA07047C
:100B6000002C71D04E68012E08D04E68022E05D0A0
:100B70004E68112E02D04E68122E13D190685F007D
:100B80000326BE40B0435F00CE68BE403043906055
:100B9000506801269E40B0430E79C6F300169E4071
:100BA00030435060D0685F000326BE40B0435F0012
:100BB0008E68BE403043D0604E68022E02D04E6830
:100BC000122E13D1DF0802F1200656F827005E0727
:100BD000F70E0F26BE40B0435F07FF0E0E69BE4002
:100BE0003043DF0802F1200646F8270010685F0056
:100BF0000326BE40B0430E7906F003065F00BE40F8
:100C0000304310604E6806F08056B6F1805F1BD10D
:100C100000BF444E366846F00206424F3E603E46F4
:100C2000366806F00206009600BF00BF3E4E9F08E1
:100C300056F827009E07370F0F26BE40B0433B4EA5
:100C4000B24202D100262EE063E0394EB24201D119
:100C5000012628E0374EB24201D1022623E0364E6B
:100C6000B24201D103261EE0344EB24201D1042625
:100C700019E0334EB24201D1052614E0314EB242A2
:100C800001D106260FE0304EB24201D107260AE01C
:100C90002E4EB24201D1082605E02D4EB24201D1BE
:100CA000092600E00A269F073F0FBE4030431E4E34
:100CB0009F0846F827002868A0434E6806F480364F
:100CC000B6F5803F00D1204328606868A0434E6895
:100CD00006F40036B6F5003F00D1204368604FF0BF
:100CE000B0463068A0434E6806F48016B6F5801F03
:100CF00000D120434FF0B04630607068A0434E688A
:100D000006F40016B6F5001F00D120434FF0B046A0
:100D100070605B1C0E68DE40002E7FF41CAFF8BDD7
:100D200080000058F444025808040058000002589B
:100D30000004025800080258000C02580010025823
:100D40000014025800180258001C025800200258D3
:100D5000002402580AB1816101E00B0483617047ED
:100D600001480068000C70470010005C01480068F2
:100D70007047000014000024034800680349097804
:100D80000844014908607047140000241C00002436
:100D900010B5032000F0A8F801F01AF8104909680E
:100DA000C1F303210F4A515C01F01F0120FA01F445
:100DB0000B48006800F00F001146085C00F01F00AF
:100DC00024FA00F00849086008480460002000F098
:100DD0000FF808B1012010BD00F036F80020FAE746
:100DE00018440258569200082400002420000024D1
:100DF00070B504461148007808B9012070BD0F484D
:100E000000784FF47A71B1FBF0F00D490968B1FB3D
:100E1000F0F5284601F03AFF08B10120EEE7102C6A
:100E200007D200222146501E00F020F80548046039
:100E300001E00120E2E70020E0E700001C000024C0
:100E4000200000241800002408B500BF06480068F0
:100E500040F00200044908600846006800F0020003
:100E6000009000BF00BF08BDF44402582DE9F05FB8
:100E700080460D46164607F017FF074639462A46B4
:100E8000334601F00700C0F1070ABAF1040F02D996
:100E90004FF0040A01E0C0F1070AD14600F1040A4C
:100EA000BAF1070F02D24FF0000A01E0A0F1030AE5
:100EB000D4464FF0010A0AFA09FAAAF1010A0AEA2D
:100EC000020A0AFA0CFA4FF0010B0BFA0CFBABF119
:100ED000010B0BEA030B4AEA0B042146404607F0DC
:100EE000EBFEBDE8F09F000000BF00F00702064BDC
:100EF00019684FF6FF031940044B0B4343EA0221E4
:100F0000014B196000BF70470CED00E00000FA05CE
:100F100070B5044615480068C0F3800048B913480E
:100F2000006800F00700A04201D0012070BD002041
:100F3000FCE70E48006820F0070020430B490860DA
:100F4000FFF714FF054607E0FFF710FF401BB0F561
:100F50007A7F01D90120E9E7044808380068C0F326
:100F600040300028F0D00020E0E700000C48025894
:100F70002DE9F04104460025A846206800F00060F5
:100F8000B0F1006F30D1606E48B1B0F5801F0DD068
:100F9000B0F5001F10D0B0F5401F15D113E0F9488F
:100FA000006840F40030F74908600FE00221201D7E
:100FB00002F09CF9054609E0022104F1240002F048
:100FC00047FA054602E001E0012500BF00BF55B920
:100FD000EC482430006820F44010616E0843E94971
:100FE0002431086000E0A846208800F48070B0F545
:100FF000807F2DD1606D05281AD2DFE800F0030A4A
:1010000010171800DF48006840F40030DD49086020
:1010100010E00021201D02F069F905460AE00021D8
:1010200004F1240002F014FA054603E002E001E0B6
:10103000012500BF00BF55B9D2482430006820F018
:101040000700616D0843CF492431086000E0A846DD
:10105000208800F40070B0F5007F33D1A06D8028A7
:1010600017D003DC40B140281CD10CE0C02817D0B9
:10107000B0F5807F16D114E0C248006840F400301B
:10108000C049086010E00021201D02F02FF905463C
:101090000AE0002104F1240002F0DAF9054603E039
:1010A00002E001E0012500BF00BF55B9B54824307A
:1010B000006820F4E070A16D0843B2492431086053
:1010C00000E0A846208800F48060B0F5806F38D139
:1010D000D4F8A400B0F5800F19D004DC50B1B0F5FD
:1010E000001F1DD10DE0B0F5C00F17D0B0F5000FF7
:1010F00016D114E0A348006840F40030A14908600C
:1011000010E00021201D02F0F1F805460AE0002160
:1011100004F1240002F09CF9054603E002E001E03E
:10112000012500BF00BF5DB996482C30006820F44F
:101130006000D4F8A410084392492C31086000E004
:10114000A846208800F40060B0F5006F38D1D4F8CC
:10115000A800B0F1007F19D004DC50B1B0F1807F5D
:101160001DD10DE0B0F1407F17D0B0F1806F16D1E6
:1011700014E08448006840F400308249086010E0C0
:101180000021201D02F0B2F805460AE0002104F11A
:10119000240002F05DF9054603E002E001E00125CC
:1011A00000BF00BF5DB977482C30006820F0E060D8
:1011B000D4F8A810084373492C31086000E0A84611
:1011C000206800F00070B0F1007F27D1A06CA0B1C2
:1011D000102804D0202809D030280FD10CE069480D
:1011E000006840F400306749086009E00221201DD2
:1011F00002F07CF8054603E002E001E0012500BFB3
:1012000000BF55B95F482030006820F03000A16C65
:1012100008435C492031086000E0A846208800F4BB
:101220008050B0F5805F36D1E06DB0F5005F19D029
:1012300004DC50B1B0F5805F1DD10DE0B0F5405F2A
:1012400017D0B0F5804F16D114E04E48006840F436
:1012500000304C49086010E00021201D02F046F8E3
:1012600005460AE0002104F1240002F0F1F80546E9
:1012700003E002E001E0012500BF00BF55B941488D
:101280002430006820F4E040E16D08433D492431FA
:10129000086000E0A846208800F40050B0F5005F28
:1012A00034D1206EB0F5403F1DD007DC68B1B0F5F9
:1012B000803F0BD0B0F5003F18D10DE0B0F5802F86
:1012C00012D0B0F5A02F11D10FE011E00121201DA7
:1012D00002F00CF805460BE0012104F1240002F0B5
:1012E000B7F8054604E003E002E001E0012500BF95
:1012F00000BF55B923482430006820F4E020216E57
:10130000084320492431086000E0A846208800F402
:101310008040B0F5804F38D1D4F8AC00B0F1405FD8
:101320001DD007DC68B1B0F1805F0BD0B0F1005F79
:1013300018D10DE0B0F1804F12D0B0F1A04F11D113
:101340000FE011E00121201D01F0D0FF05460BE068
:10135000012104F1240002F07BF8054604E003E0DB
:1013600002E001E0012500BF00BF6DB905482C3047
:10137000006820F0E040D4F8AC10084301492C315B
:10138000086002E02C440258A846208800F400407F
:10139000B0F5004F26D1E06E98B1B0F1805F03D078
:1013A000B0F1005F0ED106E0F948006840F400306B
:1013B000F749086008E00121201D01F097FF05466C
:1013C00002E001E0012500BF00BF55B9F04824301C
:1013D000006820F04050E16E0843ED492431086078
:1013E00000E0A846206800F08070B0F1807F27D12F
:1013F000606CA0B1012804D0022809D003280FD1C5
:101400000CE0E348006840F40030E149086009E07E
:101410000221201D01F06AFF054603E002E001E021
:10142000012500BF00BF55B9D9482030006820F021
:101430000300616C0843D6492031086000E0A846EB
:10144000206800F48000B0F5800F7DD1D14800689D
:1014500040F48070CF490860FFF788FC064606E03C
:10146000FFF784FC801B642801D9032505E0C948E7
:10147000006800F480700028F2D000BF85BBC4482B
:101480004430006800F44070B4F8B01001F44071CA
:10149000884213D0BE484430006820F44077BC48EE
:1014A0004430006840F48030B9494431086008464F
:1014B000006820F48030086008460760D4F8B00067
:1014C000B0F5807F15D1FFF751FC064609E0FFF724
:1014D0004DFC801B41F28831884202D9032507E088
:1014E00038E0AB4844300068C0F340000028EED03C
:1014F00000BF55BB00BFB4F8B00000F44070B0F5B9
:10150000407F0ED1A2481C38006820F47C51A24ACA
:10151000D4F8B000104041EA10109D491C39086011
:1015200007E09B481C38006820F47C5098491C391F
:101530000860974844300068B4F8B010C1F30B015C
:1015400008439349443101E005E001E0086002E00E
:10155000A84600E0A846207800F0010068B3A06F1C
:10156000182819D005DC48B1082808D0102816D151
:101570000BE0202811D0282811D10FE011E0012123
:10158000201D01F0B3FE05460BE0012104F124000B
:1015900001F05EFF054604E003E002E001E0012502
:1015A00000BF00BF55B97A482830006820F03800E5
:1015B000A16F084376492831086000E0A8462078EA
:1015C00000F00200022828D1606F062815D2DFE85B
:1015D00000F003040A11121311E00121201D01F093
:1015E00085FE05460BE0012104F1240001F030FFE7
:1015F000054604E003E002E001E0012500BF00BF72
:1016000055B963482830006820F00700616F08432F
:101610005F492831086000E0A846207800F0040007
:1016200004282AD1D4F89000062815D2DFE800F06B
:1016300003040A11121311E00121201D01F056FECE
:1016400005460BE0012104F1240001F001FF0546ED
:1016500004E003E002E001E0012500BF00BF5DB946
:101660004B482C30006820F00700D4F89010084355
:1016700047492C31086000E0A846207800F020009F
:10168000202836D1D4F88C00B0F1405F1DD007DCA3
:1016900068B1B0F1805F0BD0B0F1005F18D10DE000
:1016A000B0F1804F12D0B0F1A04F11D10FE011E096
:1016B0000021201D01F01AFE05460BE0022104F175
:1016C000240001F0C5FE054604E003E002E001E06D
:1016D000012500BF00BF5DB92D482830006820F00B
:1016E000E040D4F88C10084329492831086000E014
:1016F000A846207800F04000402836D1D4F8980061
:10170000B0F5406F1DD007DC68B1B0F5806F0BD02D
:10171000B0F5006F18D10DE0B0F5805F12D0B0F5D4
:10172000A05F11D10FE011E00021201D01F0DEFDCE
:1017300005460BE0022104F1240001F089FE054674
:1017400004E003E002E001E0012500BF00BF5DB955
:101750000F482C30006820F4E050D4F8981008436B
:101760000B492C31086000E0A846207800F080008A
:1017700080283AD1D4F89C00B0F5C04F23D00DDCBE
:1017800098B1B0F5005F11D0B0F5804F1ED113E0D5
:101790002C44025800480258FFFCFF0FB0F5004FE0
:1017A00012D0B0F5204F11D10FE011E00021201D23
:1017B00001F09CFD05460BE0022104F1240001F03C
:1017C00047FE054604E003E002E001E0012500BF1A
:1017D00000BF4DB9B548006820F46040D4F89C10B3
:1017E0000843B249086000E0A846207800F00800ED
:1017F000082817D1D4F88000B0F5805F07D1022106
:1018000004F1240001F024FE08B14FF00108A748BC
:10181000001F006820F44050D4F880100843A3490A
:10182000091F0860207800F01000102815D1D4F8A6
:101830009400B0F5807F07D1022104F1240001F06B
:1018400007FE08B14FF001089848006820F4407086
:10185000D4F89410084395490860206800F40020EB
:10186000B0F5002F26D1D4F8A00030B1B0F5803FFC
:1018700009D0B0F5003F0ED10CE00021201D01F091
:1018800035FD054609E0022104F1240001F0E0FDE8
:10189000054602E001E0012500BF00BF4DB98348C5
:1018A000006820F44030D4F8A01008437F49086055
:1018B00000E0A846206800F48020B0F5802F2DD1EC
:1018C000D4F88400B0F5801F06D0B0F5001F0CD00E
:1018D000B0F5401F11D10FE074482C38006840F477
:1018E000003072492C39086009E0012104F124001C
:1018F00001F0AEFD054602E001E0012500BF00BF9A
:101900005DB96A48001F006820F44010D4F88410C4
:1019100008436649091F086000E0A846206800F4F3
:101920008030B0F5803F24D1E06C18B1B0F5803F35
:101930000FD108E05D482C38006840F400305B4966
:101940002C39086007E00221201D01F0CFFC05467C
:1019500001E0012500BF00BF55B954480C380068AC
:1019600020F48030E16C084350490C39086000E0F5
:10197000A846206800F00050B0F1005F07D10221B6
:1019800004F1240001F064FD08B14FF00108206863
:1019900000F40030B0F5003F27D1E06FA0B1B0F502
:1019A000807F06D0B0F5007F0CD0B0F5407F0CD121
:1019B00009E03E482C38006840F400303B492C399F
:1019C000086004E003E002E001E0012500BF00BF81
:1019D00055B93648001F006820F44070E16F084395
:1019E0003249091F086000E0A846206800F4801012
:1019F000B0F5801F09D12D480838006820F000405C
:101A0000216F0843294908390860206800F0805098
:101A1000B0F1805F0AD125484838006820F4804042
:101A2000D4F8B4100843214948390860206800F40C
:101A30000010B0F5001F09D11C480838006820F0DC
:101A40008070A16E0843194908390860206800F0C9
:101A50008040B0F1804F11D100BF14484838006871
:101A600020F4004011494839086008460068D4F85D
:101A7000B81008430D494839086000BF206800F0DD
:101A80000040B0F1004F09D108480C38006820F040
:101A90004050216D084305490C390860B8F1000F2A
:101AA00002D10020BDE8F0810120FBE75844025834
:101AB0002DE9F04104460D4614B90120BDE8F0813E
:101AC000BD48006800F00F00A8420ED2BA48006876
:101AD00020F00F002843B84908600846006800F06D
:101AE0000F00A84201D00120E8E7207800F00400B0
:101AF00004280ED1B1492069096801F070018842BB
:101B000007D9AE48006820F0700021690843AB494E
:101B10000860207800F00800082811D1A749091DA5
:101B20006069096801F07001884209D9A348001D65
:101B3000006820F0700061690843A049091D086031
:101B4000207800F01000102811D19C49091DA069CF
:101B5000096801F4E061884209D99848001D0068CD
:101B600020F4E060A16908439449091D08602078C9
:101B700000F02000202811D190490831E06909685F
:101B800001F07001884209D98C480830006820F0C3
:101B90007000E1690843894908310860207800F045
:101BA000020002280ED18549E068096801F00F01A2
:101BB000884207D98148006820F00F00E168084397
:101BC0007E490860207800F00100002850D07B4852
:101BD000006820F47060A168084378490860606874
:101BE000022807D1754818380068C0F34040F8B99A
:101BF000012063E76068032807D17048183800683F
:101C0000C0F34060A0B9012058E76068012807D1FF
:101C10006A4818380068C0F3002048B901204DE731
:101C2000664818380068C0F3800008B9012045E70D
:101C300062480838006820F00700616808435F497F
:101C400008390860FFF792F8064608E0FFF78EF8BB
:101C5000801B41F28831884201D903202EE7574882
:101C60000838006800F038006168B0EBC10FEDD1B2
:101C7000207800F0020002280ED15049E06809687F
:101C800001F00F01884207D24C48006820F00F0095
:101C9000E1680843494908604748006800F00F00C0
:101CA000A8420ED94448006820F00F00284342495A
:101CB00008600846006800F00F00A84201D001202B
:101CC000FCE6207800F0040004280ED13B4920698E
:101CD000096801F07001884207D23848006820F096
:101CE00070002169084335490860207800F0080039
:101CF000082811D13149091D6069096801F0700196
:101D0000884209D22D48001D006820F070006169EA
:101D100008432A49091D0860207800F010001028A7
:101D200011D12649091DA069096801F4E0618842C2
:101D300009D22248001D006820F4E060A169084330
:101D40001E49091D0860207800F02000202811D1CC
:101D50001A490831E069096801F07001884209D226
:101D600016480830006820F07000E1690843134904
:101D70000831086000F02CF810490968C1F303210C
:101D80000F4A515C01F01F0120FA01F70B4800686F
:101D900000F00F001146085C00F01F0027FA00F069
:101DA000084908600848076008480068FFF720F8FD
:101DB0008046404682E60000002000521844025847
:101DC000569200082400002420000024180000245B
:101DD000F0B5824E366806F0380636B1082E15D0BA
:101DE000102E15D0182E7DD114E07C4E103E366892
:101DF000C6F3401646B1794E103E3668C6F3C107A9
:101E0000774E26FA07F000E07548E5E07548E3E014
:101E10007548E1E0714E1836366806F003046F4EDF
:101E200018363668C6F305116C4E1C36366806F057
:101E300001056A4E24363668C6F3CC0616FB05F655
:101E400001EE106AB8EE410A002971D024B1012CCC
:101E500050D0022C6DD16DE0604E103E3668C6F356
:101E600040163EB35D4E103E3668C6F3C1075C4E69
:101E700026FA07F301EE103AF8EE411A01EE101AB5
:101E8000B8EE411A81EE812A9FED581AC0EE011A70
:101E9000524E20363668C6F3080601EE106AB8EED8
:101EA000411A31EE811AF7EE001A31EE211A62EE74
:101EB000010A1EE001EE101AB8EE411ADFED4C1ACD
:101EC00081EE812A9FED491AC0EE011A434E203659
:101ED0003668C6F3080601EE106AB8EE411A31EE14
:101EE000811A00E076E0F7EE001A31EE211A62EE78
:101EF000010A5BE001EE101AB8EE411A9FED3D2A8F
:101F0000C2EE011A9FED391A80EE012A334E2036B7
:101F10003668C6F3080601EE106AB8EE411A32EED2
:101F2000011AB7EE002A31EE021A61EE810A3DE095
:101F30004EE01DE001EE101AB8EE411ADFED2E1A48
:101F400081EE812A9FED291AC0EE011A234E203618
:101F50003668C6F3080601EE106AB8EE411A31EE93
:101F6000811AF7EE001A31EE211A62EE010A1DE025
:101F700001EE101AB8EE411A9FED1E2AC2EE011AA8
:101F80009FED1A1A80EE012A144E20363668C6F3E9
:101F9000080601EE106AB8EE411A32EE011AB7EEE9
:101FA000002A31EE021A61EE810A00BF00BF0B4E1B
:101FB00020363668C6F34626721C01EE102AB8EEAB
:101FC000411AC0EE811ABCEEE11A11EE100A00E0CF
:101FD000002001E0034800BF00BFF0BD10440258DC
:101FE0000090D00300093D0040787D0100000046CC
:101FF0000024744C0024744A20BCBE4B2DE9F047E9
:10200000044614B90120BDE8F087207800F00100F3
:10201000002870D0FE48006800F03808FC481830EE
:10202000D0F80090B8F1100F06D0B8F1180F0FD10A
:1020300009F0030002280BD1F54810380068C0F3FE
:10204000404000286AD06068002867D10120DAE7A4
:1020500000BF6068B0F5803F08D1ED4810380068D7
:1020600040F48030EA49103908602EE0606868B9B1
:10207000E7481038006820F48030E54910390860DE
:102080000846006820F4802008601EE06068B0F513
:10209000A02F0DD1DE481038006840F48020DC49C4
:1020A000103908600846006840F4803008600CE091
:1020B000D7481038006820F48030D54910390860BE
:1020C0000846006820F48020086000BF606898B16E
:1020D000FEF74CFE054606E0FEF748FE401B64286E
:1020E00001D903208FE7CA4810380068C0F3404088
:1020F0000028F1D012E012E0FEF738FE054606E0B7
:10210000FEF734FE401B642801D903207BE7C0485A
:1021100010380068C0F340400028F1D100BF20789B
:1021200000F0020002287BD1B948006800F03808AE
:10213000B7481830D0F80090B8F1000F05D0B8F1CA
:10214000180F3AD109F00300B0BBB148103800684D
:10215000C0F3800018B1E06808B9012053E700BF60
:10216000FEF7FEFD41F20301884219D8206940289C
:102170000AD1A7480C38006820F47C3040F40030C5
:10218000A3490C39086016E0A1480C38006820F417
:102190007C30216940EA01309D490C3908600AE031
:1021A0009B480C38006820F0FE40217C40EA01602A
:1021B00097490C39086067E0FFE7E06888B3944806
:1021C0001038006820F01900E16808439049103980
:1021D0000860FEF7CBFD054606E0FEF7C7FD401B95
:1021E000022801D903200EE7894810380068C0F39F
:1021F00080000028F1D000BFFEF7B2FD41F20301DC
:1022000088421BD8206940280CD181480C380068CE
:1022100020F47C3040F400307D490C39086018E02F
:1022200033E017E07A480C38006820F47C302169EC
:1022300040EA013076490C3908600AE074480C38ED
:10224000006820F0FE40217C40EA016070490C39B2
:10225000086019E06E481038006820F001006C49F1
:1022600010390860FEF782FD054606E0FEF77EFDA8
:10227000401B022801D90320C5E6654810380068D4
:10228000C0F380000028F1D100BF207800F01000DA
:1022900010287CD15E48006800F038085C4818308F
:1022A000D0F80090B8F1080F06D0B8F1180F3DD162
:1022B00009F00300012839D1554810380068C0F3EF
:1022C000002020B1E069802801D001209BE600BFFA
:1022D000FEF746FD41F2030188421AD8206A202801
:1022E0000AD14B480C38006820F0F84040F080409C
:1022F00047490C39086018E045480C38006820F060
:10230000F84094F8201040EA816041490C39086097
:102310000BE03F48001F006820F07C5094F820102C
:1023200040EA01603A49091F086066E0E06978B355
:1023300037481038006840F080003549103908608F
:10234000FEF714FD054606E0FEF710FD401B0228CF
:1023500001D9032057E62E4810380068C0F300204A
:102360000028F1D000BFFEF7FBFC41F203018842D8
:102370001CD8206A20280CD125480C38006820F091
:10238000F84040F0804022490C3908601AE035E0FE
:1023900019E01F480C38006820F0F84094F820102D
:1023A00040EA81601A490C3908600BE01848001FA8
:1023B000006820F07C5094F8201040EA0160144935
:1023C000091F086019E012481038006820F08000EA
:1023D0000F4910390860FEF7C9FC054606E0FEF714
:1023E000C5FC401B022801D903200CE60848103820
:1023F0000068C0F300200028F1D100BF207800F071
:102400000800082834D16069D8B10148643001E07F
:1024100010440258006840F00100EF490860FEF7E0
:10242000A5FC054606E0FEF7A1FC401B022801D9E9
:102430000320E8E5E8480068C0F340000028F2D037
:1024400016E0E548006820F00100E3490860FEF767
:102450008DFC054606E0FEF789FC401B022801D9E9
:102460000320D0E5DC480068C0F340000028F2D12A
:10247000207800F02000202836D1A069D0B1D648BD
:102480007438006840F48050D34974390860FEF70E
:102490006DFC054606E0FEF769FC401B022801D9E9
:1024A0000320B0E5CC4874380068C0F34030002801
:1024B000F1D019E0C8487438006820F48050C6494B
:1024C00074390860FEF752FC054606E0FEF74EFC44
:1024D000401B022801D9032095E5BF4874380068E5
:1024E000C0F340300028F1D1207800F00400042827
:1024F0007DD1BA48006840F48070B8490860FEF7A2
:1025000035FC054606E0FEF731FC401B642801D986
:10251000032078E5B148006800F480700028F2D00C
:1025200000BFA068012808D1AB48001F006840F038
:102530000100A949091F08602DE0A06868B9A648F4
:10254000001F006820F00100A349091F0860084629
:10255000006820F0040008601DE0A06805280DD187
:102560009D48001F006840F004009B49091F086057
:102570000846006840F0010008600CE09648001F23
:10258000006820F001009449091F086008460068AF
:1025900020F00400086000BFA068A0B1FEF7E6FBD1
:1025A000054608E0FEF7E2FB401B41F28831884215
:1025B00001D9032027E58848001F0068C0F34000C8
:1025C0000028EFD013E0FEF7D1FB054608E0FEF748
:1025D000CDFB401B41F28831884201D9032012E52E
:1025E0007D48001F0068C0F340000028EFD1606AFA
:1025F00000287DD078486438006800F0380018283A
:1026000077D0606A022875D173487438006820F06A
:102610008070714974390860FEF7A8FB054606E032
:10262000FEF7A4FB401B022801D90320EBE46A4813
:1026300074380068C0F340600028F1D100BFD4E9CD
:102640000A1041EA001064494C39096840F2F3323B
:102650009143084360494C390860208E401EC0F306
:102660000800616B491E4FF47E4202EA4121084393
:10267000218F491ED20102EA014108433C21095D34
:10268000491E120202EA01610843534944390860B5
:1026900000BF081F006820F00100091F08604E48B5
:1026A000403800684FF6F8718843A16C40EAC100D9
:1026B00049494039086048484838006820F00C0013
:1026C000216C08434449483908600846006820F0F6
:1026D0000200616C084340494839086008460068B8
:1026E00040F4803008600846006840F4003002E0A2
:1026F0006FE041E025E008600846006840F4802073
:1027000008600846006840F00100086032487438EC
:10271000006840F08070304974390860FEF726FB8D
:10272000054606E0FEF722FB401B022801D90320E4
:1027300069E4294874380068C0F340600028F1D08B
:1027400047E025487438006820F0807022497439C9
:102750000860FEF70BFB054606E0FEF707FB401B93
:10276000022801D903204EE41B4874380068C0F3E6
:1027700040600028F1D12CE017484C380768164813
:1027800044380668606A012821D007F00301A06A76
:1027900081421CD1C7F30511E06A884217D1C6F304
:1027A0000801206B401E814211D1606B401EC6F3B0
:1027B000462188420BD1A06B401EC6F306418842D9
:1027C00005D1E06B401EC6F30661884201D00120AE
:1027D00019E4002017E4000074440258004802582D
:1027E00070B5044600260CB9012070BD606A00B9BE
:1027F00000BF0021A1625349206888420CD0524991
:102800002068884208D051492068884204D0E06896
:102810000F2801D90120E8E7204600F0C2FF054655
:1028200048492068884209D047492068884205D035
:1028300046492068884201D0082D0DD841492068BA
:10284000884207D040492068884203D03F49206829
:10285000884203D1102D01D90120C6E794F88100E8
:1028600028B9002084F88000204600F071F802208A
:1028700084F881002068006820F001002168086069
:10288000A069B0F1806F0BD16068B0F5800F07D1FF
:10289000A06B28B92068006840F480502168086067
:1028A000A16AE06908433043E16B0843E1680843EB
:1028B00021688860616A606B0843A16B0843A16965
:1028C00008432169084361690843216A0843616834
:1028D0000843E16C0843A1680843A16C0843A16D5B
:1028E00008432168C860606878B92068806820F46F
:1028F000C05040F40060216888602068806820F43F
:10290000C06040F48060216888602068006D20F01D
:10291000010021680865606800F48000B0F5800F50
:1029200007D12068C06820F00040616D084321682D
:10293000C8600020C4F88400012084F881000020D1
:1029400053E700000030014000380040003C0040E8
:1029500010B586B00446142101A8FDF764FE19499C
:10296000206888422CD100BF1748006840F480409E
:10297000154908600846006800F48040009000BFD8
:1029800000BF00BF10480838006840F002000E4940
:10299000083908600846006800F00200009000BF97
:1029A00000BF4FF4444001900220029000200390A9
:1029B000032004900520059001A90448FEF7C6F8FD
:1029C00006B010BD00380040E84402580004025828
:1029D0002DE9F84F0446884617461D46206800F149
:1029E00020094FF0000A00BF94F88000012802D1AE
:1029F0000220BDE8F88F012084F8800000BFFEF7B8
:102A0000B5F9064694F88100012808D04FF0020A73
:102A100000BF002084F8800000BF5046E9E7B8F10D
:102A2000000F00D047B94FF0010A00BF002084F822
:102A3000800000BF5046DCE703205C3484F82500AA
:102A40000020A062C4F80080A780E780A060A08179
:102A5000E081A06160615C3CA068B0F5C02F05D149
:102A60002068006840F400602168086020684068C1
:102A70006FF30F003843216848602068006840F019
:102A80000100216808606068B0F5800F05D12068FA
:102A9000006840F4007021680860E0680F2832D9AF
:102AA0002CE02068406900F0020002280CD1E06DA3
:102AB000006821680862E06D001DE065B4F86200FE
:102AC000401EA4F8620019E0FEF750F9801BA842EE
:102AD00001D3681C00B98DB9204600F0F7FD00BF96
:102AE000002084F8800000BFD4F8840040F4807097
:102AF000C4F88400012084F881007AE7B4F8620009
:102B00000028CED1A2E0E068072845D93FE0206840
:102B1000406900F0020002281FD1B4F862000128C9
:102B20000ED9E06B60B1E06D006821680862E06D6D
:102B3000001DE065B4F86200801EA4F8620026E083
:102B4000E06D0088A9F80000E06D801CE065B4F835
:102B50006200401EA4F8620019E0FEF707F9801B2E
:102B6000A84201D3681C00B98DB9204600F0AEFD23
:102B700000BF002084F8800000BFD4F8840040F437
:102B80008070C4F88400012084F8810031E7B4F833
:102B900062000028BBD159E054E02068406900F091
:102BA0000200022834D1B4F8620003280FD9E06B88
:102BB00040280CD9E06D006821680862E06D001DB6
:102BC000E065B4F86200001FA4F862003AE0B4F8CF
:102BD000620001280ED9E06B60B1E06D0088A9F8B1
:102BE0000000E06D801CE065B4F86200801EA4F86F
:102BF000620027E0E06D0078216881F82000E06D38
:102C0000401CE065B4F86200401EA4F8620019E0C0
:102C1000FEF7ACF8801BA84201D3681C00B98DB93F
:102C2000204600F053FD00BF002084F8800000BF64
:102C3000D4F8840040F48070C4F88400012084F843
:102C40008100D6E6B4F862000028A6D133460022FF
:102C500008212046009500F0B1FD28B1D4F8840089
:102C600040F02000C4F88400204600F02FFD00BF93
:102C7000002084F8800000BF012084F88100D4F88F
:102C8000840008B10120B4E65046B2E670B50446AF
:102C90002546681EB0F1807F01D301200FE0681E39
:102CA0004FF0E02148610F214FF0FF3006F004F8AB
:102CB00000204FF0E021886107200861002070BDEE
:102CC00000BFFEE72DE9FC5F07460D4600264FF4E6
:102CD000FA70B0EB450F01D92E4601E04FF4FA76B9
:102CE0000122D1032148FEF735F800224FF480512C
:102CF0001F48FEF72FF838120190B2465046FDF7F4
:102D000063FB0446002004E001992154411C6754F0
:102D1000801CB042F8D34FEA4508B8FBF6F9B8FB7F
:102D2000F6F006FB10800090B9F1000F0CD04FF0C8
:102D3000000B07E0B2B20A2321460E48FFF748FE17
:102D40000BF1010BCB45F5D3009882B20A23214643
:102D50000848FFF73DFE012211030548FDF7FAFF81
:102D60002046FDF760FBBDE8FC9F00000010025804
:102D700000040258BC59022410B501225103024834
:102D8000FDF7E8FF10BD00000004025810B504462E
:102D900008480388084802880021084600F03EF9E8
:102DA00005480088034A128800FB02F12046FFF71D
:102DB00089FF10BD420000244400002410B5FFF735
:102DC000DBFF00F005F9012000F096F94FF47A706E
:102DD000FDF7A8FECB2000F08FF9392000F0A8F90C
:102DE0002C2000F0A5F9002000F0A2F9342000F01A
:102DF0009FF9022000F09CF9CF2000F07DF900201F
:102E000000F096F9C12000F093F9302000F090F91D
:102E1000E82000F071F9852000F08AF9002000F028
:102E200087F9782000F084F9EA2000F065F90020A5
:102E300000F07EF9002000F07BF9ED2000F05CF955
:102E4000642000F075F9032000F072F9122000F000
:102E50006FF9812000F06CF9F72000F04DF9202087
:102E600000F066F9C02000F047F9232000F060F977
:102E7000C12000F041F9102000F05AF9C52000F0FF
:102E80003BF93E2000F054F9282000F051F9C7200A
:102E900000F032F9862000F04BF9362000F02CF9D2
:102EA000482000F045F93A2000F026F9552000F0BE
:102EB0003FF9B12000F020F9002000F039F9182086
:102EC00000F036F9B62000F017F9082000F030F9CC
:102ED000822000F02DF9272000F02AF9F22000F0DE
:102EE0000BF9002000F024F9262000F005F901205C
:102EF00000F01EF9E02000F0FFF80F2000F018F9B4
:102F0000312000F015F92B2000F012F90C2000F010
:102F10000FF90E2000F00CF9082000F009F94E20FE
:102F200000F006F9F12000F003F9372000F000F975
:102F3000072000F0FDF8102000F0FAF8032000F060
:102F4000F7F80E2000F0F4F8092000F0F1F8002066
:102F500000F0EEF8E12000F0CFF8002000F0E8F8F3
:102F60000E2000F0E5F8142000F0E2F8032000F055
:102F7000DFF8112000F0DCF8072000F0D9F831204C
:102F800000F0D6F8C12000F0D3F8482000F0D0F8C7
:102F9000082000F0CDF80F2000F0CAF80C2000F057
:102FA000C7F8312000F0C4F8362000F0C1F80F2037
:102FB00000F0BEF8112000F09FF87820FDF7B2FD78
:102FC000292000F099F8002000F052F810BD000010
:102FD00010B500224FF400510A48FDF7BBFEC8208F
:102FE000FDF7A0FD00224FF480510648FDF7B2FE28
:102FF000C820FDF797FD012251030248FDF7AAFE04
:1030000010BD00000004025801B501231A466946AC
:103010000148FFF7DDFC08BDBC5902242DE9F04151
:1030200004460D4616461F462A2000F065F8201279
:1030300000F07EF8E0B200F07BF8301200F078F893
:10304000F0B200F075F82B2000F056F8281200F0CE
:103050006FF8E8B200F06CF8381200F069F8F8B2D6
:1030600000F066F82C2000F047F8BDE8F081000081
:1030700070B504462546362000F03EF80120FDF7E5
:1030800051FD35B1012D0FD0022D18D0032D2CD1BB
:1030900020E0482000F04CF8F020154908804FF45B
:1030A000A0701449088021E0282000F041F84FF476
:1030B000A0700F490880F0200E49088016E0882093
:1030C00000F036F8F0200A4908804FF4A070094952
:1030D00008800BE0E82000F02BF84FF4A0700449C2
:1030E0000880F0200349088000E000BF00BF70BDE9
:1030F000440000244200002410B5044600224FF48E
:1031000080510948FDF726FE00224FF40041074890
:10311000FDF720FE2046FFF777FF0122110302484A
:10312000FDF718FE10BD0000000402580010025800
:1031300010B504460122D1030848FDF70BFE00221A
:103140004FF480510648FDF705FE2046FFF75CFF6F
:10315000012211030248FDF7FDFD10BD00100258C9
:103160000004025810B50A480A4908600020087196
:1031700000210848417141618161012005490862CF
:103180000846FDF775FC08B1FDF73DFC10BD0000D9
:10319000004C02589859022400B587B0142102A8A7
:1031A000FDF741FA00BF3048006840F080002E492A
:1031B00008600846006800F08000019000BF00BF72
:1031C00000BF0846006840F010000860084600682C
:1031D00000F01000019000BF00BF00BF084600686B
:1031E00040F0020008600846006800F0020001900C
:1031F00000BF00BF00BF0846006840F00100086043
:103200000846006800F00100019000BF00BF0122E5
:10321000D1031648FDF79EFD012211031448FDF766
:1032200099FD00224FF400511148FDF793FD4FF432
:10323000004002900120039000200490032005909C
:1032400002A90A48FDF782FC4FF440500290012089
:103250000390002004900320059002A90448FDF784
:1032600075FC07B000BD0000E04402580010025891
:103270000004025810B51548154908604FF4800045
:1032800048600021124881600721C160002101616E
:1032900041614FF080618161C900C161002101621B
:1032A00041628162C1624FF08041416300218163CC
:1032B000C163016441648164C164016541658165E4
:1032C000FFF78EFA08B1FDF79EFB10BD00380040F5
:1032D000BC59022410B505F0C9FD10BD10B505F0AC
:1032E00009FE10BD00BFFEE7704770472DE9F041B1
:1032F00004460E4600275548006800F003000328E6
:1033000002D10120BDE8F08150482838006820F043
:1033100080604E4928390860FDF728FD054606E023
:10332000FDF724FD401B022801D90320EAE74748A6
:1033300028380068C0F3C0600028F1D100BF4348BE
:10334000006820F47C30216840EA01303F49086081
:10335000A088401EC0F30800A168491E4FF47E42B9
:1033600002EA41210843A189491ED20102EA014132
:103370000843217C491E120202EA016108433349D5
:103380001031086000BF3148001D006820F0C00007
:10339000616908432D49091D08600846006820F04E
:1033A0002000A16908432949091D086008460068F2
:1033B00020F0100008602548143000684FF6F871BE
:1033C0008843E16940EAC1002049143108601F4880
:1033D000001D006840F010001C49091D08602EB94E
:1033E0000846006840F40020086012E0012E08D171
:1033F0001648001D006840F480101449091D08603B
:1034000007E01248001D006840F400100F49091D34
:1034100008600E482838006840F080600B49283961
:103420000860FDF7A3FC054606E0FDF79FFC401B86
:10343000022801D9032065E7044828380068C0F352
:10344000C0600028F1D038465CE7000028440258EC
:103450002DE9F04104460E4600275548006800F06B
:103460000300032802D10120BDE8F081504828382C
:10347000006820F080504E4928390860FDF776FC3E
:10348000054606E0FDF772FC401B022801D9032027
:10349000EAE7474828380068C0F340700028F1D1B7
:1034A00000BF4348006820F07C70218840EA01504A
:1034B0003F490860A088401EC0F30800A168491E6B
:1034C0004FF47E4202EA41210843A189491ED201FC
:1034D00002EA01410843217C491E120202EA01610D
:1034E000084333491831086000BF3148001D0068A7
:1034F00020F44060616908432D49091D08600846B1
:10350000006820F40070A16908432949091D08607A
:103510000846006820F48070086025481C30006868
:103520004FF6F8718843E16940EAC10020491C3137
:1035300008601F48001D006840F480701C49091D88
:1035400008602EB90846006840F48000086012E068
:10355000012E08D11648001D006840F400001449EF
:10356000091D086007E01248001D006840F08070E7
:103570000F49091D08600E482838006840F0805047
:103580000B4928390860FDF7F1FB054606E0FDF719
:10359000EDFB401B022801D9032065E704482838C9
:1035A0000068C0F340700028F1D038465CE70000A6
:1035B0002844025810B50023234C236000BF00BFED
:1035C00000BFBFF34F8F00BF00BF00BF231F1868AD
:1035D000C0F34E3100BFC0F3C90200BF43F6E07331
:1035E00003EA41134FF0404404EA82742343174C2A
:1035F000236000BF00BF131EA2F10102EED10B1E1B
:10360000A1F10101E7D100BF00BF00BFBFF34F8FA1
:1036100000BF00BF00BF0C4B703B1B6843F48033FE
:10362000094C703C236000BF00BF00BFBFF34F8F49
:1036300000BF00BF00BF00BF00BF00BFBFF36F8F60
:1036400000BF00BF00BF10BD84ED00E060EF00E0F0
:1036500000BF00BF00BFBFF34F8F00BF00BF00BF60
:1036600000BF00BF00BFBFF36F8F00BF00BF00BF30
:1036700000201449086000BF00BF00BFBFF34F8F98
:1036800000BF00BF00BF00BF00BF00BFBFF36F8F10
:1036900000BF00BF00BF0C48006840F400300A497A
:1036A000086000BF00BF00BFBFF34F8F00BF00BF67
:1036B00000BF00BF00BF00BFBFF36F8F00BF00BFE0
:1036C00000BF704750EF00E014ED00E00268516960
:1036D0000268926942F0080203689A61026892697E
:1036E00042F0100203689A610268126822F0010237
:1036F00003681A600268126940F26F339A430368E4
:103700001A610268926822F4404203689A6090F855
:103710008120042A0ED001F020025AB1D0F8842072
:1037200042F08002C0F884200268926942F02002D0
:1037300003689A6190F88120032A0ED001F04002BC
:103740005AB1D0F8842042F00402C0F88420026804
:10375000926942F0400203689A6101F400725AB122
:10376000D0F8842042F00102C0F8842002689269F7
:1037700042F4007203689A6101F480725AB1D0F881
:10378000842042F00802C0F884200268926942F462
:10379000807203689A610022A0F86220A0F86A2073
:1037A000704710B501460124C86B04EB5013C8687C
:1037B000421CD01DC20802FB03F010BD2DE9F041F0
:1037C00006460C4617469846069D0BE0FDF7CEFAD6
:1037D000A0EB0800A84201D3681C00B915B903206A
:1037E000BDE8F081306840692040A04201D101204D
:1037F00000E00020B842E9D00020F1E7704710B5A2
:10380000FDF7BAFA10BD000000B5CBB04C2138A8C6
:10381000FCF709FF202130A8FCF705FFBC2101A817
:10382000FCF701FF0220FDF773FB00BF00200090B2
:103830002E48006840F440402C4908600846006863
:1038400000F4404000902A48006840F001002849F8
:1038500008600846006800F00100009000BF00BF4B
:1038600000BF2248006800F40050B0F5005FF8D1B6
:10387000012038900004399002204190022138A89C
:1038800081620521C162C02101630221416381631C
:10389000C16308210164002141648164FEF7AEFB2D
:1038A00008B1FDF7B0F83F203090032031900020A0
:1038B00032900820339040203490359000013690AB
:1038C00040203790042130A8FEF7F2F808B1FDF748
:1038D0009AF84FF4805001900020189001A8FDF74D
:1038E00047FB08B1FDF78FF84BB000BD18480258F0
:1038F0002C0400583648006840F4700034490860D1
:103900003448006800F00F00072806D231480068EC
:1039100020F00F00C01D2F4908602F48006840F0BC
:1039200001002D49086000202B49103108602A4809
:1039300000682A490840284908602648006800F0C5
:103940000F00072806D92348006820F00F00C01D8B
:10395000204908600020204918310860091D0860CE
:10396000091D08601E481C49283108601D48091DB2
:1039700008601D48091D08600020091D08601A48DC
:10398000091D08600020091D08601748091D08600E
:103990000020091D08601048006820F480200E49AE
:1039A000086000200C4960310860104800686FF31F
:1039B0000F00B0F1005F02D201200D49086043F210
:1039C000D2000C49086048030149803908607047FB
:1039D00088ED00E000200052004402587FEDF6EA36
:1039E000000202020000FF01800201010010005CE1
:1039F000088100510040005200BFFEE710B58AB0B8
:103A00001548007800F0010010BB134805F07AF962
:103A1000F0B100203F22114BCDE907200693099019
:103A20000F4800210123CDE90231CDE90410042023
:103A30000A230122CDE900100A490B4801F0D8FC05
:103A400004460A4A0A49FCF720FD0348AFF3008008
:103A500005480AB010BD0000280000245CA9000839
:103A60008C920008CCA80008745B022400000008B7
:103A70004554000810B58AB01548007800F00100E0
:103A800010BB134805F03EF9F0B100203F22114B66
:103A9000CDE90720069309900F4801210022CDE9C6
:103AA0000212CDE9041004201423CDE900200822DD
:103AB0000A490B4801F09CFC04460A4A0A49FCF7F3
:103AC000E4FC0348AFF3008005480AB010BD0000D5
:103AD0002C00002460A9000890920008DCA80008CF
:103AE000985B0224000000084554000810B58AB015
:103AF0001548007800F0010010BB134805F002F9EA
:103B0000F0B100203F22114BCDE907200693099028
:103B10000F4800210123CDE90231CDE90410042032
:103B200028230122CDE900100A490B4801F060FC6E
:103B300004460A4A0A49FCF7A8FC0348AFF3008090
:103B400005480AB010BD00003000002470A900082C
:103B5000949200084CA90008BC5B022400000008F5
:103B60004554000810B50446204600F0D5F810BDB5
:103B700000BF00BF7047000010B50446204600F0AB
:103B8000CDF8044601482060204610BDEC920008A4
:103B900010B50446204600F067F90446204610BDE3
:103BA00010B50446204600F0D9F910BD10B5044602
:103BB000204600F0F7F910BD70B505460C46E688C2
:103BC000B3B2A688B2B26688B1B22688B0B2FFF7A7
:103BD00025FA2146284600F0E6F970BD10B50446E6
:103BE000204600F0E8F910BD70B504460D462946A0
:103BF000204600F0E1F970BD10B50446204600F003
:103C0000DCF910BD10B50446204600F0D7F910BD10
:103C100000BF704770B5044604F1140104F12C0391
:103C200004F58872204604F59475204E06604160C4
:103C30008360C260056100BF1D4E066000BF044680
:103C40001C48206004F11405284601F099FC054643
:103C5000194845F814092C4604F12C05284601F0B2
:103C60008FFC0546154845F82C092C4604F5887547
:103C7000284601F085FC05461148A5F588742860A2
:103C800004F5927000F047FAA0F59274224604F50C
:103C90009271081D00F04CF9A0F5947404F594712C
:103CA000204600F02CF9204670BD0000A09A0008C4
:103CB00058940008D8930008509F00081C9F0008E3
:103CC000849F000870B504460F4804F59475206081
:103CD000284600F011FA054600BFA5F59474A5F139
:103CE000180004F073FBA0F58874E43804F060FB5E
:103CF000A0F12C04183804F062FBA0F11404204653
:103D000000F004F9044670BDD893000800487047DD
:103D10006892000801207047704700003EB50446D5
:103D20002546284603F0DAF905464C48286000206D
:103D3000E86300BF2C464A48286004F1400001F0C7
:103D40001FFDA0F1400404F1700001F019FDA0F185
:103D5000700404F1A00526212846FCF764FC2846DF
:103D600003F016FA05463F4828604FF6FF7105F14B
:103D7000280004F035FBA0F12805002105F13000F2
:103D800004F034FBA0F13005002025F8340FFF20AB
:103D9000A8700020E87028716871343D00BFA5F15B
:103DA000A004F0204FF4A07300221146009004F10B
:103DB000400003F0FDF900221146104602F084FD98
:103DC0000146009004F1400001F0D6FCF0204FF4D1
:103DD000A07300221146009004F1700003F0E8F98E
:103DE000FF221146104602F06FFD0146009004F1DB
:103DF000700001F0C1FC0022114604F1A00003F0A4
:103E000046FA04F1A00500221146104602F05CFDBE
:103E100000900098286300BF28460021818600BFDB
:103E2000012101A804F0DCFA0546294604F1A000AE
:103E300004F0CCF901A800BF00BF04F14001204606
:103E400002F0F8FF04F17001204602F0F3FF04F1E4
:103E5000A001204602F0EEFF20463EBD80990008FA
:103E6000FC930008AC9D000870B504461048206023
:103E700004F1A0050F48286004F1C80000BFA0F1BC
:103E80002805284603F090F9A0F1A00404F1700081
:103E900001F094FCA0F1700404F1400001F08EFCEC
:103EA000A0F14004204602F001FD0446204670BD0A
:103EB000FC930008AC9D0008704770470A46014615
:103EC000084B036000BF0846011D074B43600023F9
:103ED0004B6000BF081F0549016018314160C26096
:103EE00070470000B89F0008EC9300083094000869
:103EF000011D00BF081F014600BF0846704770B58E
:103F000005460C46204600F05DF870BD00BF7047C6
:103F10000220704700487047E05B022410B5044659
:103F2000D4F8540100F0F6F8204600F0D3F910BDA3
:103F300070B504460D46164632462946204600F026
:103F40007FF8044601482060204670BD6C9400084C
:103F5000034600207047704700BF704770B50446A5
:103F6000204601F03FFC00F021F905462068294673
:103F7000C26C204690472068816E204688472068A2
:103F8000016E20468847206800231A460449456F81
:103F90002046A847012084F84A0000BF70BD0000F9
:103FA00098010024704770B504460D462946204606
:103FB00001F096FC70BD704770477047704700BFB6
:103FC000704700002DE9F04186B0044604F5A07763
:103FD00002AE104903C9CDE90001304601F04AFAAA
:103FE00006460D4830607460DDE90001C6E9020153
:103FF000354668687860D5E90201B846C7E902012C
:1040000002A803F0D3F804F5A070C4F83C0106B090
:10401000BDE8F0817C920008B09A000838B50446EB
:10402000D4F854010090044B04F59C710348D4F873
:10403000502104F0BDFF38BD300100242C010024C4
:104040002DE9F04104460E4617462546284600F065
:104050008DFC0546224828600020C5F83801C5F8C7
:104060003C012048056000BF2C461F48286004F52D
:10407000A075284601F0FEF905461C48286000207E
:1040800068601B4903C9C5E9020100BFA5F5A0741A
:10409000C4F85071C4F8546100BF164800688046E7
:1040A00000680021826840469047002002F08EFCA4
:1040B00000BF1048006890F8760038B10D480068DD
:1040C000C06C18B10B480068C06C02E00948006879
:1040D0008068054603F0D5F92046BDE8F081000070
:1040E000449700083401002494950008B09A000811
:1040F000849200087C0100240549016000F5A0714C
:1041000000BFA1F5A070014600BF0846704700003F
:1041100094950008704700210160704730B5044C49
:10412000039D04600171C2800381458130BD0000A0
:10413000D8950008002002490860024908607047CD
:104140000C000024100000240348006808B101207E
:1041500070470020FCE70000100000240020014907
:10416000086070470C00002400BF04480068002865
:10417000FBD1012001490860704700000C000024B9
:1041800001200149086070470C00002470B5054605
:1041900000F00CF804460068016B2046884770BDAB
:1041A0007047416070477047704770470148C0686A
:1041B000704700002801002403484068002802D00E
:1041C0000268926A104770472801002477B587B0CB
:1041D000064608A804F091FA00286ED1B6F8E84027
:1041E00006F1A805ECB3641E55D4A0B205EBC000DF
:1041F0000168009108A940680190684604F089FAB6
:1042000000285AD108A8694604F083FA28B1A2B25E
:10421000294602A804F08BFFE5E708A9684604F0E8
:104220009DFA48B1A2B2294602A804F080FF08A86E
:10423000694602F0A2FAD6E7DDE90801CDE90201FC
:1042400002A8694602F099FABDF82400BDF82610CC
:10425000BDF8062010FB01F0BDF8041011FB0202AE
:1042600000E018E002EB420000EBC201BDF80C00D8
:10427000BDF80E2010FB02F000EB800040008142F0
:10428000B1DDA2B2294604A804F051FFDDE9020124
:10429000CDE90801A7E7B6F8E800082808D1072209
:1042A0002946684604F043FF08A8694602F065FA0B
:1042B000DDE90812284604F05EFF0AB070BD000078
:1042C00003484068002802D00268D269104770474E
:1042D000280100242DE9F041374D0446A86808B1B3
:1042E000017A19B194F8351131B114E0002184F844
:1042F00035110168896859E068B1007A58B1686879
:1043000010B1016809698847A8680168C9688847C9
:10431000012084F8350100260BE0A01990F88800F0
:1043200030B1B1B2201D50F821000168096D8847F5
:10433000761CB4F88400B042EFDC0022104613E093
:10434000211891F8883073B190420BD086B2231DAA
:1043500053F8267096B243F82670A31891F8881087
:1043600083F88810521C401CB4F884108142E7DCAA
:1043700013E0581E80B2211D83420ED905E001EBE7
:1043800080035B6841F82030401CB1F880308342E4
:10439000F5DC98B2401EA1F88000B4F88430934256
:1043A000E7DC6868002804D00168496ABDE8F0418C
:1043B0000847BDE8F0810000280100240348406858
:1043C000002802D002689269104770472801002433
:1043D00003484068002802D00268126A10477047FC
:1043E000280100242DE9F04F99B0044680F83411DB
:1043F00029B10020A4F8E80019B0BDE8F08F04F559
:10440000967004F07AF990B9D4E94B1204F58075EE
:104410002046FFF7DBFE00200090034602460146DF
:1044200001A802F0F5F90168E96240682863B4F870
:10443000E80098B10020FD4F80F00105386920B1F7
:1044400007F1140004F059F950B1002DD4D001A89F
:1044500004F0A0FE3E8804F1A80520E00120EAE770
:10446000F248143001F05CF9D7E905122046FFF755
:10447000ADFE0020009003460246014601A802F06E
:10448000C7F9016879614068B861E0E705EBC600EB
:104490000168426801A804F06EFE761CB6B2B4F85A
:1044A000E800B042F2D8E148068804F1EA0016902C
:1044B00009E0169800EBC600016842682046FFF745
:1044C00085FE761CB6B2B4F82A01B042F1D8DFF806
:1044D00060A3DAF8000090F84800012804D0022810
:1044E00077D0D2480688BCE1DFF840B30026BBF89D
:1044F00000700CE0B8B205EBC000804604F0F8F89C
:10450000B04203DD404604F0F3F806467F1CB4F8E1
:10451000E800B842EEDCC74800880F2801D9C0087F
:1045200000E001208146002000900346024601463B
:1045300012A802F06DF9D04653E0D1F884108847F4
:10454000074612A804F0D4F84844B8420BDDB7423D
:1045500009DA12A804F0CCF8B8423BDD12A804F046
:10456000C7F8002836DD12A804F0C2F8B84201DC12
:10457000BE4200DA374612A804F0BAF83F1A12A871
:1045800004F0B6F8024638B20090AB48002100882B
:1045900003B217A802F03CF9016812914068139029
:1045A000BBF8007010E005EBC70112AA14A804F0D4
:1045B00012F914A804F0A1F820B9206814A9426BDC
:1045C000204690477F1CBFB2B4F8E800B84208D933
:1045D000E9E711E0D8F800000168D1F88020012156
:1045E000904712A804F084F8B042D8F8000001689F
:1045F000A3DBC969884738E190480078012879D061
:104600000DE18A484FF00008B5F900600088401CB1
:1046100087B226E005EBC000814604F064F88246CC
:10462000B9F906B005EBC700814604F05CF85045C7
:10463000514606DDB9F90060B846084656450ADB22
:104640000DE00AD1B9F90610594500DDB846B9F9AF
:104650000000B04203DB064601E0B042FBDC7F1CF9
:10466000BFB2B4F8E800B8421FFA88F0D2D805EB20
:10467000C0073868129078681390BDF94C00142870
:1046800001DABDF9486012A804F02DF8801BADF8DE
:104690004C0012A8ADF8486000F0EAFF12A804F040
:1046A0002CF838BBBDF94E00142800DD1420BDF8ED
:1046B0004C3081B25E48BDF84A2000680091BDF8D8
:1046C00048100668B66FB0470646ADF84E0012A80F
:1046D00001F026F8206812A9426B20469047B8885E
:1046E000801B00B2B88028B91FFA88F2294614A8A6
:1046F00004F01DFDB4F8E800002882D1B5E04FF0C9
:104700000009284603F0F4FF064648480088401C8C
:1047100087B228E005EBC00005EBC708B0F902A09E
:10472000B0F90410B8F90200504508DAB94640461D
:1047300003F0DEFF504551460CDD0E4611E00DD171
:10474000B8F90400884200DDB946404603F0D0FFC6
:10475000B04206DC404603F0CBFF01E0B04200DA95
:1047600006467F1CBFB2B4F8E800B8421FFA89F0D1
:10477000D0D805EBC007B7F90600142803DA38468D
:1047800003F0B6FF0646384603F0B7FFF0BB12A8A9
:1047900002F045F83888ADF84800B7F90200ADF8E6
:1047A0004A00B988301A1428ADF84C1000DD1420E6
:1047B00086B2384603F09CFFBDF94A10401AB04259
:1047C00005DC384603F094FFBDF94A10461A184834
:1047D000B1B2BDF84C30BDF84A2000680091BDF878
:1047E00048100668B66FB047ADF84E0012A92068B1
:1047F000426B204690477888BDF84E100844788078
:10480000F888BDF84E10401A00B200E007E0F880CA
:1048100028B91FFA89F2294614A804F088FCB4F8D4
:10482000E80000287FF46BAF1FE00000280100249F
:104830007C01002474010024720100246C01002416
:1048400005EBC600016812914068139012A803F0AE
:1048500054FF20B9206812A9426B20469047761C6D
:10486000B6B2B4F8E800B042EAD80D4800780028A3
:104870003FF4C2AD0020A4F82A010A48048809E0E8
:1048800001A800EBC40001684268169804F073FCAC
:10489000641CA4B2BDF84400A042F1D8ACE500000D
:1048A0006D010024280100240022A0F88420114674
:1048B0004318491C202983F88820F9DB704770478A
:1048C00070B50646194886B00C460022114600888D
:1048D00000B200901648008803B203A801F098FFC8
:1048E0000246214601A803F076FF0199114D21608F
:1048F000029A62606868002805D096F8343123B1C6
:104900003046FFF763FC06B070BD01688A68214637
:104910009047286918B101688A682146904706487F
:10492000006801684A6921469047ECE77401002459
:1049300072010024280100247C0100243EB50446B5
:10494000084800221146008800B2009006480088FE
:1049500003B201A801F05CFF206801A9426B204668
:1049600090473EBD7401002472010024F8B5174938
:1049700000250160A0F88450A83004F00BFC423000
:1049800004F008FC0023009542301A46194601F055
:104990003FFF0572A0F5967445720D490D48FBF76F
:1049A000E9FF00B101200C4E08B1358006E04FF45C
:1049B000806030800220706002F058FAF560204676
:1049C0007560B560FFF770FF2046F8BD10960008CF
:1049D000CDB5E8B5C2A507F4280100240149086057
:1049E000704700006801002430B5044C039D04604A
:1049F0000171C2800381458130BD000068960008C6
:104A000001210172704700BF7047C363016000213C
:104A1000C0E90112C160017401860183018700F0C1
:104A2000BDBB70B51C460B46A1F5C0660546049893
:104A3000B6F5407F216805D20A460146284600F0B7
:104A400083FA13E0A2F560637F2B05D80A4601467E
:104A5000284600F0ACF809E095F8550038B1A2F509
:104A60001060023803D1284600F035FA2060206833
:104A700010B104F0A5F818B1002085F8550070BDFC
:104A80000120FAE770B500F11A050446008EB8B1AE
:104A9000A98A401E35F81160E882481C80B2A882BD
:104AA0000A2801D30A38A882204600F03DF9208B5D
:104AB0001234022801D2401CE080A08810B103E02B
:104AC000FBF7D8FC0220A08080B2401E80B2A080FC
:104AD00024F81060304670BD2DE9F04700F1120552
:104AE0000C460021DDF8208017E0561AB5F806C004
:104AF000761E34F8027BB6B2B44501D8FBF7BAFC97
:104B0000B5F804C06644B6B2022E00D3B61E35F81E
:104B10001660BE4211D1491C89B29142E5D30026EC
:104B200000F11A0903EB08070CE034F8025B314688
:104B3000484604F0F1F9A84202D00020BDE8F08711
:104B4000761CB6B2B742F0D80120F7E72DE9F84F4E
:104B50009146824631F8020B0C46050B31F81520C0
:104B60004A4502D00020BDE8F88F00F00F082A4621
:104B7000C0F303272146C0F303163B465046009678
:104B8000FFF7AAFF50B1E81942463044394604EB1A
:104B90004003504600F035FB0120E4E704EB4500FC
:104BA00000EB470000EB460101EB4801D2E72DE99D
:104BB000F05F5FEA02088B4604464FF0000921D0FF
:104BC00098F80D0004F1400A98F8071000F0100062
:104BD000B8F8045041EA0016A5F63161F7101E2915
:104BE00053D2DFE801F01852521818181841414109
:104BF000525252525252525252525252181818187D
:104C000018181818A4F84E904846A4F85090A4F824
:104C10005290BDE8F09F04F11A0004F08DF940F6BF
:104C20003361884208D1DBF80000C26858469047DB
:104C300003F0B3FFA4F84E00F119B4F84E000E22B1
:104C40000844414624F84E0F5046FBF775FCB4F972
:104C50000010504603F0A2FB14F8050C2179401A0D
:104C600004F8050C5046D4E70E2241465046FBF7A7
:104C700063FC34F8500FC01B01B2504603F08EFBAA
:104C80002088F119401A2080ECE7A5F560601B38F8
:104C900022D0A5F560601D381ED0A5F560601F38D4
:104CA0001AD0404603F079FFA4F84E00A5F56060E5
:104CB000093840F6136A21D055451FD0A5F560602C
:104CC00019381BD0A4F85290404603F066FF801BB1
:104CD000A4F8500040469CE76D1E5A46ABB24146D0
:104CE000204603F091FB03F058FFA4F84E00404625
:104CF00003F066FF810801EB501012E0404603F01C
:104D00005FFF5545074602D140F60C6500E06D1E79
:104D10005A46ABB24146204603F076FB03F050FF03
:104D2000381AA4F85200CFE770B500F11A0605460C
:104D300013E0288F05F13204B8B1A188401E34F881
:104D40001110E080A088401C80B2A080022801D30E
:104D5000801EA080304604F003F9288F70B13046E1
:104D600004F05BFA0028E4D008E0FBF783FB284658
:104D700000F01AFA0146304604F0F2F8304604F02A
:104D80004CFA0028F3D070BD2DE9F0410446884666
:104D9000E06B002847D004F11A0004F0CDF8002899
:104DA00041D0204600F0AAF804F11A050126E88A4D
:104DB000B04200DD04E0C5221D491E48FBF77CFB24
:104DC000A88A304487B20A2F01D2384601E0A7F101
:104DD0000A0035F8100040F63F11884223D104F153
:104DE0001A05284604F0A8F80646E88A012800DDDE
:104DF00005E040F20D1210491048FBF75DFBA88A50
:104E0000401C87B20A2F01D2384600E0002025F866
:104E1000106000BF04F11A0040F63F11828A20F8AA
:104E2000121000BF00BF2046FFF72CFEBDE8F08146
:104E300036A0000828A00008E19F0008D89F0008BD
:104E40002DE9F8431E4615460C4607461A3004F075
:104E500073F8804621463846FFF796FF04000FD0CE
:104E600028682146C268284690473060334622466B
:104E7000414638460095FFF7D4FD2046BDE8F8834B
:104E800000203060F9E72DE9F84F1E4615460C4624
:104E900007461A30DDE90A9804F04EF882462146AA
:104EA0003846FFF771FF040012D0286843464A468F
:104EB0002146D0F808C02846E047306033462246F5
:104EC000514638460095FFF7ACFD2046BDE8F88F07
:104ED00000203060F9E770B5044669B104F1400084
:104EE0000E220546FBF728FB284603F061FE4042F0
:104EF00084F84900284670BD084670BD2DE9F0478A
:104F0000C56B0646002406F11A0768884FEA500868
:104F100013E0384604F010F8814603462A4641461D
:104F2000304603F07CFA00280BD005EB40014A46DE
:104F30003046FFF70BFE002803D02046641C0A28E9
:104F4000E7DBBDE8F08700002DE9F047924F16003F
:104F500004460AD0727BF07902F01002B18840EA70
:104F60000215042D0ADDA81009E0A4F84E70A4F87B
:104F70005070A0F852701046BDE8F087012040F252
:104F8000DB6399428046A1F2DB6004F1400912D054
:104F900048DC40F253629142A1F253600BD020DC16
:104FA00040F219629142A1F2196079D004DCA1F5B6
:104FB000C26108297ED873E0352871D008DC012849
:104FC00005D032286CD033286AD0342872D199E0C9
:104FD000362865D037286ED0382861D0392869D175
:104FE0005EE00A285CD008DC0A2863D2DFE800F023
:104FF000BD588A8A58585858588A832850D008DC97
:105000000B284DD00C287DD01D2849D0212851D106
:1050100046E0842844D0852842D0862840D087287E
:1050200048D13DE0B0F5047F3AD029DC102837D0D4
:105030000BDCA0F104000C283CD2DFE800F0313199
:105040003131633196963131966340F20B229042B2
:10505000A0F20B2156D00ADC112821D0122851D001
:10506000A0F5007009381BD001287ED118E0012975
:1050700016D0022914D0032944D0042975D10FE099
:10508000A0F21120132870D2DFE800F00A3C3C3C6B
:105090000A0A3C0A0A0A3C0A0A3C3C0A0A0A0A00B2
:1050A000B4F94E00B8420CD1B4F95000B84208D15E
:1050B000304601E059E025E003F06FFDA4F84E0012
:1050C0002BE00E2231464846FBF736FAB4F952007F
:1050D000B84208D0304603F06BFD94F85210A1EBB3
:1050E000500084F84900B4F94E00B84204D0284476
:1050F00001B2484603F052F9484603F04EFDA4F8C9
:105100004E002DE0B4F94E00B8420AD1B4F9500077
:10511000B84206D1304603F040FD401BA4F85000D1
:1051200037E00E2231464846FBF706FAB4F9520042
:10513000B84208D0304603F03BFD94F85210A1EB82
:10514000500084F84900B4F95000B84205D0A0EBF3
:10515000080001B2484603F021F9484603F01DFD5E
:10516000401BA4F85000484606E7304603F015FD02
:10517000A4F84E00401BA4F850004E34304603F013
:1051800017FD40000521B0FBF1F096F90910084425
:10519000A0803046F0E600000080FFFF10B5044616
:1051A0002046FFF7C1FD10BD416811B9016831B358
:1051B0004160017C51B1C16831B10A8822B10A460F
:1051C000891CC160108870470021017442681188F1
:1051D000A9B1022904D01146921C42600888704788
:1051E000921C426081680A1D82600968C1600029C2
:1051F000DAD009880029D7D001210174D4E7002032
:1052000070472DE9F05F8A469B465245164600F1ED
:105210001A04804624D9A6EB0A001FFA80F9002759
:105220001CE0E18A08F13205204631B3491E89B2FB
:10523000C18203F071FE0146E888401C02281CD898
:10524000E880A888012801D2801CA880A888401E78
:1052500080B2A8807F1CBFB225F810104F45E0D364
:105260005146204603F092FE15E0761EE08AB6B263
:10527000401C0A283BF8161001D9FBF7FBF8E08226
:10528000A08A012801D20A30A082A08A401E80B2E2
:10529000A08224F81010002EE7D14046BDE8F05F50
:1052A000FFF742BD10B50446002001212060606078
:1052B000E0602074E0822083E0852086E0862087FD
:1052C000E063A4F84E00A4F85000A4F8520084F85B
:1052D000541084F855002046FFF760FF204610BDAB
:1052E00070B50D460446606801684A68904700281A
:1052F000F9D10B4E30680168496E8847FEF740FFD0
:10530000606801688A68294690472068C16A20461B
:10531000884730680168096EBDE8704008470000A2
:105320007C0100247047704770470168096908478D
:10533000406801680968084710B5FEF715FFBDE829
:105340001040FEF70BBF0168496C084710B50446D2
:10535000406801680968884700280BD1607A0028F6
:1053600008D0207A002805D12068416A2046BDE88F
:105370001040084710BD70B50446012020726068D7
:105380000168896988470546006820282BD008DC19
:10539000012828D002281BD004280BD0082807D1C8
:1053A00010E040281FD080281DD0B0F5807F1AD093
:1053B000FBF760F82068297F826B204690472068C1
:1053C000026B0BE02068297F826B2046904703E048
:1053D0002068C16B204688472068426B29462046DA
:1053E000BDE8704010472068C16B20468847E6E75B
:1053F0002DE9FF4F87B004460D46DDE91CABDDF813
:105400006C90DDE91778149ECDE9059ACDE9037813
:10541000DDE91510CDE90061029029462046DDE95D
:10542000092302F021FF0446054820601998A06175
:105430001A98E061C4F820B020460BB0BDE8F08FA8
:10544000F096000800BF704710B5044600BFD4F8BE
:105450003C0168B1D4F83C010268D168884738B192
:10546000D4F83C010268916888470020C4F83C01E8
:1054700000BF10BD01490160704700008897000817
:105480002DE9FF41244C0546D5E90060A169E9B347
:10549000A06801EBD17103AF00EB61000390A0693C
:1054A00029680297CDE90010E36BE26AE1692068A0
:1054B00000F034F80646A06969680297CDE900104B
:1054C000236C226B216A606800F028F80644D4E956
:1054D000051000EBD07001EB60000390A069296813
:1054E0000297CDE90010636C626B616AE06800F0BE
:1054F00015F88046A06969680297CDE90010A36C91
:10550000A26BA16A206900F009F800E000E04044C5
:10551000C5E90060BDE8FF81EC5B0224F0B5012421
:105520000028DDE90565DDF81CC001DA4042A41E53
:10553000002E01DA76426442002D01DA6D426442A7
:10554000DCF800E046FA01F77A4303FB07E30127A2
:105550008F407F1E3740784390FBF5F105FB11012A
:1055600090FBF5F0194491FBF5F31844104491FBBE
:10557000F5F2604305FB1211CCF80010F0BD0000FD
:10558000024901600021818070470000B89700083F
:10559000704710B50446D4E90320801A002801DCC6
:1055A000A368184401280DD9606800EB42101F223F
:1055B000FBF707F8D4E90210401C814200D8401ADA
:1055C000E06010BDFAF756FF4168006901EB40103A
:1055D0007047D0E90321891A002901DC8068014461
:1055E000012901DC0120704700207047D0E9031039
:1055F000814201D10120704700207047034B0360B6
:10560000C0E901120021C16001617047EC970008F8
:105610002DE9F04104460D461646FEF7C7FD074644
:10562000FFF742F9306818B130680268D1688847DE
:10563000306818B13068026811688847206818B16E
:105640002068026851698847286818B1286802688C
:1056500051688847206818B1206802681168884737
:10566000286818B12868026891688847BDE8F08109
:1056700008491CB500240A8807490988ADF800408C
:10568000ADF80420ADF80240ADF80610694600F010
:1056900005F81CBD720100247401002410B50446F5
:1056A0000A48007800280FD001280DD12088A28850
:1056B00010440A46401E2080A11C204600F01EF81F
:1056C000A088E188A180E08010BD00006C0100246A
:1056D0003CB5084A00251388074A1288ADF80050E7
:1056E000ADF80430ADF80250ADF806206A4600F07F
:1056F00005F83CBD7201002474010024074B10B56D
:105700001B78002B08D0012B06D103880C8804805D
:105710009088C01A401E088010BD00006C01002453
:10572000094910B5097800290DD001290BD1074C82
:105730004388C188028824880B44E31A038042808E
:1057400082888180C28010BD6C0100247201002417
:10575000074A10B51278002A09D0012A07D1054C52
:105760000B8802882488E31A5B1E03800A8010BD20
:105770006C0100247801002403B5019981620CBDFD
:1057800010B5044626212046FAF74DFF204601F0C9
:10579000FFFC044608482060FF2084F82600002112
:1057A00004F1280002F022FEA0F12804002084F871
:1057B0002C00204610BD00001098000810B50446CB
:1057C000204601F0F1FC044610BD00000449497870
:1057D00021B190F86A0008B100207047012070479D
:1057E0006C01002410B50446FEF7A4FC6068016853
:1057F000C9688847E0680168896888472068C16D82
:105800002046BDE81040084710B5044694F87700DC
:1058100020B1606802681168884710BD0020FCE76D
:105820002DE9FF4F89B0884604466846DDE91665D4
:10583000DDE91A97DDE918BA01F088F9CDE90078B9
:10584000ADF810602046ADF81250ADF814B08DF8E8
:105850001C9000F06BF8DDE90B120346204602F0C5
:1058600085FE039010484089ADF8160000F020F93D
:105870000168096A88478DF81E008DF81D003EB149
:1058800035B12068016B204688470099084201D154
:10589000FAF7F0FDCDF818A0606801684A6869461B
:1058A00090470DB0BDE8F08F6C01002410B50446A0
:1058B0000A48407858B994F84800022807D0606830
:1058C000FFF736FD18B16168487A0028FCD0FEF772
:1058D0004BFC2046BDE8104000F028B86C010024C5
:1058E000012180F84B1080F86910704710B504460C
:1058F00090F86A00002812D0022000F03DFF00203E
:1059000084F86A0084F86900204600F00FF8014628
:105910002068D0F8A0202046BDE81040104710BDF8
:1059200001464FF6FF707047FEF718BC10B50446ED
:105930000648407840B12068816A20468847E16B7C
:10594000884201D1206C10BDE06B10BD6C010024B9
:1059500081651C3001F060BD80F87410012280F870
:10596000752070472DE9FE430F460446806998462E
:105970000A99164680B30022029202AACDE90012CB
:10598000016832460D683946A847154D8146A5F88D
:105990000A8000F08DF80168096A88470D2818D23E
:1059A000DFE800F0070F1B1B1B1B1B1B1B1B1B1B1C
:1059B0001B006889029906FB0070404201EB400021
:1059C00006E06889029906FB0070A0EB800008449D
:1059D000E0634846BDE8FE83FFE7FAF74BFD0000B1
:1059E0006C0100242DE9F04104460F4615461E4681
:1059F0000FB100BF05E04FF427720A490A48FAF7D1
:105A00005BFDE763256466640DB1012000E00020C2
:105A1000064908700EB1012000E00020044908701A
:105A2000BDE8F0811DA30008E5A200086D01002477
:105A30006E01002490F8741090F83420914216D032
:105A40001649097849BB16490988164A1180164932
:105A50000988164A118013490988134A118013498D
:105A600009880F4A118001210C4A117015E00B4979
:105A7000097891B10C4909880A4A118008490988B6
:105A80000A4A118011460988074A11800549098888
:105A9000034A11800021014A117070476C010024F3
:105AA000720100247601002474010024780100248E
:105AB0000448016991F8760010B1C86C002800D143
:105AC000886870476C010024FEB504460068D0F871
:105AD000981020468847594E002500287ED0012086
